:100000000C945D000C9444040C941D040C94850025
:100010000C9485000C9485000C9485000C9485004C
:100020000C9485000C9485000C9485000C9485003C
:100030000C9485000C9485000C9485000C9485002C
:100040000C94D3030C9485000C94A1030C947B03B3
:100050000C9485000C9485000C9485000C9485000C
:100060000C9485000C9485000000000024002700FB
:100070002A0000000000250028002B0004040404CE
:100080000404040402020202020203030303030342
:10009000010204081020408001020408102001021F
:1000A00004081020000000080002010000030407FB
:1000B00000000000000000006B0411241FBECFEF01
:1000C000D8E0DEBFCDBF11E0A0E0B1E0E2E1FFE0AB
:1000D00002C005900D92A631B107D9F721E0A6E143
:1000E000B1E001C01D92A03DB207E1F710E0CDE5FF
:1000F000D0E004C02197FE010E947C07CC35D107D7
:10010000C9F70E9498040C9487070C940000823071
:10011000C8F4E82FF0E0EE0FFF1FE050FF4F7183AF
:100120006083813041F0809169008C7F8260809390
:100130006900E89A089580916900837F88608093C0
:100140006900E99A0895ECEAF0E02491E8E9F0E02A
:100150009491E4E8F0E0E491EE2309F43BC022231B
:1001600039F1233091F038F42130A9F0223001F533
:1001700024B52F7D12C0273091F02830A1F0243013
:10018000B9F4209180002F7D03C0209180002F774B
:10019000209380000DC024B52F7724BD09C0209185
:1001A000B0002F7703C02091B0002F7D2093B000C6
:1001B000F0E0EE0FFF1FEE58FF4FA591B4912FB75F
:1001C000F894EC91811103C090959E2301C09E2B61
:1001D0009C932FBF0895CF92DF92EF92FF920F93DF
:1001E0001F93CF93DF936C017A018B01C0E0D0E0C5
:1001F000CE15DF0589F0D8016D918D01D601ED9105
:10020000FC910190F081E02DC6010995892B11F434
:100210007E0102C02196ECCFC701DF91CF911F91E3
:100220000F91FF90EF90DF90CF900895089580E0B8
:1002300090E00895FC01538D448D252F30E0842FEC
:1002400090E0821B930B541710F0CF9608950197FE
:100250000895FC01918D828D981761F0828DDF01E8
:10026000A80FB11D5D968C91928D9F5F9F73928FA9
:1002700090E008958FEF9FEF0895FC01918D828D9E
:10028000981731F0828DE80FF11D858D90E008956B
:100290008FEF9FEF0895FC01918D228D892F90E0C3
:1002A000805C9F4F821B91098F739927089583E388
:1002B00091E00E944B0121E0892B09F420E0822F7C
:1002C0000895FC01848DDF01A80FB11DA35ABF4F13
:1002D0002C91848D90E001968F739927848FA68945
:1002E000B7892C93A089B1898C9180648C93938D6C
:1002F000848D981306C00288F389E02D80818F7D5C
:1003000080830895EF92FF920F931F93CF93DF9313
:10031000EC0181E0888F9B8D8C8D981305C0E88956
:10032000F989808185FD24C0F62E0B8D10E00F5FCA
:100330001F4F0F731127E02E8C8DE8120CC00FB6E3
:1003400007FCFACFE889F989808185FFF5CFCE01D6
:100350000E946101F1CF8B8DFE01E80FF11DE35A80
:10036000FF4FF0820B8FEA89FB898081806207C092
:10037000EE89FF896083E889F989808180648083C0
:1003800081E090E0DF91CF911F910F91FF90EF906E
:100390000895CF93DF93EC01888D8823C9F0EA8913
:1003A000FB89808185FD05C0A889B9898C9186FD6E
:1003B0000FC00FB607FCF5CF808185FFF2CFA8896B
:1003C000B9898C9185FFEDCFCE010E946101E7CF05
:1003D000DF91CF91089580E090E0892B29F00E9471
:1003E000570181110C9400000895CF93DF9390E0A2
:1003F000FC01E057FF4F2491FC01E458FF4F84912A
:10040000882361F190E0880F991FFC01E859FF4FA4
:10041000C591D491FC01EE58FF4FA591B4916111A3
:1004200009C09FB7F8948881209582238883EC9136
:100430002E230BC0623061F49FB7F8943881822F6D
:10044000809583238883EC912E2B2C939FBF06C02D
:100450008FB7F894E8812E2B28838FBFDF91CF913F
:1004600008953FB7F8948091170190911801A091D9
:100470001901B0911A0126B5A89B05C02F3F19F0AC
:100480000196A11DB11D3FBFBA2FA92F982F882714
:10049000820F911DA11DB11DBC01CD0142E0660F6F
:1004A000771F881F991F4A95D1F708958F929F92C1
:1004B000AF92BF92CF92DF92EF92FF920E943102F1
:1004C0004B015C0184E6C82ED12CE12CF12C0E945A
:1004D0003102DC01CB0188199909AA09BB09883EC0
:1004E0009340A105B10558F021E0C21AD108E108F6
:1004F000F10888EE880E83E0981EA11CB11CC1147F
:10050000D104E104F10419F7FF90EF90DF90CF9050
:10051000BF90AF909F908F9008950895809129018A
:1005200090912A01019690932A018093290180914C
:10053000290190912A018097B4F180912501909131
:100540002601A0912701B0912801409121015091ED
:10055000220160912301709124018827B7FD8395C2
:100560009927AA27BB27842B952BA62BB72B8093E3
:10057000210190932201A0932301B0932401809143
:10058000210190912201A0912301B0912401880FB3
:10059000991FAA1FBB1F8093210190932201A09352
:1005A0002301B09324018091250190912601A0910F
:1005B0002701B09128018160809325019093260145
:1005C000A0932701B09328018091250190912601E5
:1005D000A0912701B0912801880F991FAA1FBB1F66
:1005E0008093250190932601A0932701B0932801C1
:1005F0002FB7F89480911B0190911C01A0911D01CF
:10060000B0911E012FBF80932B0190932C01A093DA
:100610002D01B0932E0108958091290190912A0116
:10062000019690932A01809329018091290190914C
:100630002A018097B4F18091250190912601A09123
:100640002701B09128014091210150912201609130
:100650002301709124018827B7FD83959927AA2744
:10066000BB27842B952BA62BB72B8093210190932E
:100670002201A0932301B093240180912101909144
:100680002201A0912301B0912401880F991FAA1F74
:10069000BB1F8093210190932201A0932301B0936B
:1006A00024018091250190912601A0912701B0910C
:1006B0002801880F991FAA1FBB1F809325019093C3
:1006C0002601A0932701B09328012FB7F8948091B9
:1006D0001B0190911C01A0911D01B0911E012FBF23
:1006E00080932B0190932C01A0932D01B0932E01A8
:1006F00008950E9482071F920F920FB60F92112445
:100700002F933F934F935F936F937F938F939F9319
:10071000AF93BF93EF93FF9383E391E00E94610156
:10072000FF91EF91BF91AF919F918F917F916F91C9
:100730005F914F913F912F910F900FBE0F901F909F
:1007400018951F920F920FB60F9211242F938F932B
:100750009F93EF93FF93E0914301F09144018081D7
:10076000E0914901F0914A0182FD12C0908180918F
:100770004C018F5F8F7320914D01821751F0E091F2
:100780004C01F0E0ED5CFE4F958F80934C0101C071
:100790008081FF91EF919F918F912F910F900FBECC
:1007A0000F901F9018951F920F920FB60F92112461
:1007B0002F933F938F939F93AF93BF9380911B0190
:1007C00090911C01A0911D01B0911E013091160164
:1007D00023E0230F2D3720F40196A11DB11D05C084
:1007E00026E8230F0296A11DB11D209316018093C8
:1007F0001B0190931C01A0931D01B0931E018091D9
:10080000170190911801A0911901B0911A01019658
:10081000A11DB11D8093170190931801A093190198
:10082000B0931A01BF91AF919F918F913F912F91FA
:100830000F900FBE0F901F9018951F920F920FB63A
:100840000F9211242F933F934F935F936F937F9356
:100850008F939F93AF93BF93EF93FF93E091020128
:10086000F09103010995FF91EF91BF91AF919F9195
:100870008F917F916F915F914F913F912F910F9049
:100880000FBE0F901F9018951F920F920FB60F92E8
:1008900011242F933F934F935F936F937F938F9385
:1008A0009F93AF93BF93EF93FF93E0910001F0917B
:1008B00001010995FF91EF91BF91AF919F918F91A8
:1008C0007F916F915F914F913F912F910F900FBE4C
:1008D0000F901F901895E3E3F1E01382128288EEE7
:1008E00093E0A0E0B0E084839583A683B78388E09B
:1008F00091E09183808385EC90E09587848784ECF8
:1009000090E09787868780EC90E0918B808B81ECDC
:1009100090E0938B828B82EC90E0958B848B86ECBD
:1009200090E0978B868B118E128E138E148E089505
:10093000CF93DF93CDB7DEB7A1970FB6F894DEBFA4
:100940000FBECDBF789484B5826084BD84B58160CC
:1009500084BD85B5826085BD85B5816085BD80918A
:100960006E00816080936E00109281008091810002
:1009700082608093810080918100816080938100FA
:10098000809180008160809380008091B1008460BC
:100990008093B1008091B00081608093B00080911D
:1009A0007A00846080937A0080917A0082608093DC
:1009B0007A0080917A00816080937A0080917A0039
:1009C000806880937A001092C10061E088E00E9404
:1009D000F501E0914301F091440182E08083E091D0
:1009E0003F01F09140011082E0914101F0914201FC
:1009F0008FEC808310924B01E0914701F091480108
:100A000086E08083E0914501F0914601808180611C
:100A10008083E0914501F091460180818860808368
:100A2000E0914501F0914601808180688083E091EA
:100A30004501F091460180818F7D808310922B01CA
:100A400010922C0110922D0110922E011092210172
:100A5000109222011092230110922401109225017C
:100A600010922601109227011092280110922F0156
:100A70001092300110923101109232011092200137
:100A800010921F0110922A011092290160E082E069
:100A90000E94F50160E083E00E94F5016CE073E0E4
:100AA00080E00E9487006EE872E081E00E9487008B
:100AB00081E00E94A3000E945602F8942FB7F89498
:100AC00080911B0190911C01A0911D01B0911E010C
:100AD0002FBF40912B0150912C0160912D017091FD
:100AE0002E016C017D01C41AD50AE60AF70AB70186
:100AF000A6014A3151056105710508F44CC02091E9
:100B0000290130912A012831310509F495C020913D
:100B1000290130912A012A31310509F48DC0209133
:100B2000290130912A012032310509F485C0209134
:100B3000290130912A012232310509F47DC020912A
:100B4000290130912A012830310509F475C020911E
:100B5000290130912A012430310509F46DC08093B8
:100B60002B0190932C01A0932D01B0932E01109294
:100B70002A0110922901109225011092260110924B
:100B80002701109228011092210110922201109247
:100B900023011092240110E07894112309F444C039
:100BA00062E083E391E00E948201C0902F01D09027
:100BB0003001E0903101F090320119A2BE016F5D69
:100BC0007F4FD701C6018F709927AA27BB2734E032
:100BD000F694E794D794C7943A95D1F76150710988
:100BE0008A309105A105B10510F4805D01C0895CD2
:100BF000FB018083C114D104E104F10411F76115F4
:100C0000710559F001900020E9F73197AF01461BBB
:100C1000570B83E391E00E94EB0063E083E391E0F4
:100C20000E9482010E94560280E00E94A3000E945E
:100C300056020E94EB013CCF809125019091260144
:100C4000A0912701B0912801B695A7959795879512
:100C50008093250190932601A0932701B09328014A
:100C60008091290190912A018197A4F0809121011E
:100C700090912201A0912301B0912401B695A795EE
:100C8000979587958093210190932201A09323014A
:100C9000B09324018091290190912A01089709F0CD
:100CA00051C040912501509126016091270170911A
:100CB00028018091250190912601A0912701B091F2
:100CC00028018F702091290130912A013093200151
:100CD00020931F0110922A011092290110922501E0
:100CE00010922601109227011092280110922101E2
:100CF000109222011092230110922401282F082E15
:100D0000000C330B407F552766277727E4E0769564
:100D1000679557954795EA95D1F7409550954F704F
:100D200055272417350709F037CF8A3021F08B304B
:100D300019F48DE001C08BE1082E000C990BAA0B71
:100D4000BB0BD0C08091290190912A010497D1F565
:100D50008091250190912601A0912701B091280151
:100D60008F708A3021F08B3019F48DE001C08BE157
:100D7000082E000C990BAA0BBB0B80932F019093AC
:100D80003001A0933101B0933201809129019091FB
:100D90002A019093200180931F0110922A01109242
:100DA000290110922501109226011092270110921C
:100DB0002801109221011092220110922301109219
:100DC000240198C08091290190912A018A3179F4F7
:100DD0008091250190912601A0912701B0912801D1
:100DE0008E7FB170B695A795979587955FC0823233
:100DF00009F054C08091210190912201A09123011A
:100E0000B091240183709927AA27BB2780932101E1
:100E100090932201A0932301B0932401809121019A
:100E200090912201A0912301B09124014EE1880FFD
:100E3000991FAA1FBB1F4A95D1F780932101909358
:100E40002201A0932301B093240180912501909168
:100E50002601A0912701B0912801B695A7959795F5
:100E600087958093250190932601A0932701B09345
:100E700028018091210190912201A0912301B0913C
:100E80002401409125015091260160912701709124
:100E90002801842B952BA62BB72B08C08091250108
:100EA00090912601A0912701B0912801209129015C
:100EB00030912A013093200120931F0110922A01C2
:100EC00010922901109225011092260110922701FB
:100ED00010922801109221011092220110922301F8
:100EE0001092240180932F0190933001A09331013F
:100EF000B093320111E050CEEE0FFF1F0590F49138
:100F0000E02D099481E090E0F8940C948707F89420
:020F1000FFCF11
:100F12008D028D02000000008201EB001A01C9015E
:060F22004B0129013D0115
:107800000C94343C0C94513C0C94513C0C94513CE1
:107810000C94513C0C94513C0C94513C0C94513CB4
:107820000C94513C0C94513C0C94513C0C94513CA4
:107830000C94513C0C94513C0C94513C0C94513C94
:107840000C94513C0C94513C0C94513C0C94513C84
:107850000C94513C0C94513C0C94513C0C94513C74
:107860000C94513C0C94513C11241FBECFEFD8E036
:10787000DEBFCDBF11E0A0E0B1E0ECE9FFE702C060
:1078800005900D92A230B107D9F712E0A2E0B1E065
:1078900001C01D92AD30B107E1F70E942D3D0C945F
:1078A000CC3F0C94003C982F959595959595959582
:1078B000905D8F708A307CF0282F295A8091C0000B
:1078C00085FFFCCF9093C6008091C00085FFFCCF60
:1078D0002093C6000895282F205DF0CF982F809127
:1078E000C00085FFFCCF9093C6000895EF92FF92F1
:1078F0000F931F93EE24FF2487018091C00087FD22
:1079000017C00894E11CF11C011D111D81E4E8164B
:1079100082E4F8068FE0080780E0180770F3E09132
:107920000401F091050109958091C00087FFE9CF1E
:107930008091C6001F910F91FF90EF9008950E94D3
:10794000763C982F8091C00085FFFCCF9093C600B5
:1079500091362CF490330CF09053892F089597555D
:10796000892F08951F930E949F3C182F0E949F3CCF
:107970001295107F810F1F9108951F93182F882350
:1079800021F00E94763C1150E1F71F9108951F935A
:10799000182F0E94763C803249F0809103018F5F5E
:1079A000809303018530C1F01F9108958091C0003C
:1079B00085FFFCCF84E18093C6008091C00085FFE5
:1079C000FCCF1093C6008091C00085FFFCCF80E102
:1079D0008093C6001F910895E0910401F091050184
:1079E00009951F9108950E94763C803241F0809164
:1079F00003018F5F80930301853081F008958091AA
:107A0000C00085FFFCCF84E18093C6008091C00058
:107A100085FFFCCF80E18093C6000895E0910401CA
:107A2000F09105010995089540E951E08823A1F0FE
:107A30002D9A28EE33E0FA013197F1F721503040CA
:107A4000D1F72D9828EE33E0FA013197F1F7215064
:107A50003040D1F7815061F708953F924F925F9285
:107A60006F927F928F929F92AF92BF92CF92DF924E
:107A7000EF92FF920F931F93CF93DF93000080E16B
:107A80008093C4001092C50088E18093C10086E015
:107A90008093C2005098589A259A81E00E94143D24
:107AA00024E1F22E9EE1E92E85E9D82E0FE0C02ECA
:107AB00010E1B12EAA24A394B1E49B2EA6E58A2E50
:107AC000F2E57F2EE0E26E2E79E4572E63E5462E36
:107AD00050E5352E0E94763C8033B1F18133B9F107
:107AE000803409F46FC0813409F476C0823409F41B
:107AF00085C0853409F488C0803531F1823521F1A3
:107B0000813511F1853509F485C0863509F48DC0BC
:107B1000843609F496C0843709F403C1853709F423
:107B200072C1863709F466C0809103018F5F80932C
:107B30000301853079F6E0910401F0910501099582
:107B40000E94763C803351F60E94F33CC3CF0E94E2
:107B5000763C803249F78091C00085FFFCCFF092DF
:107B6000C6008091C00085FFFCCF9092C600809136
:107B7000C00085FFFCCF8092C6008091C00085FFC9
:107B8000FCCF7092C6008091C00085FFFCCF609250
:107B9000C6008091C00085FFFCCF5092C600809146
:107BA000C00085FFFCCF4092C6008091C00085FFD9
:107BB000FCCF3092C6008091C00085FFFCCFB09210
:107BC000C60088CF0E94763C863808F4BDCF0E945C
:107BD000763C0E94F33C7ECF0E94763C803809F4CC
:107BE0009CC0813809F40BC1823809F43CC1883942
:107BF00009F48FC080E00E94C73C6CCF84E10E94F2
:107C0000BD3C0E94F33C66CF85E00E94BD3C0E94D3
:107C1000F33C60CF0E94763C809306010E94763C44
:107C2000809307010E94F33C55CF0E94763C80333D
:107C300009F41DC183E00E94BD3C80E00E94C73C66
:107C400049CF0E94763C809309020E94763C809343
:107C5000080280910C028E7F80930C020E94763C79
:107C6000853409F415C18091080290910902892B8D
:107C700089F000E010E00E94763CF801E85FFE4FDA
:107C800080830F5F1F4F80910802909109020817AF
:107C9000190788F30E94763C803209F045CF809125
:107CA0000C0280FF01C16091060170910701660F0F
:107CB000771F7093070160930601A0910802B091AD
:107CC00009021097C9F0E8E0F1E09B01AD014E0F09
:107CD0005F1FF999FECF32BD21BD819180BDFA9A17
:107CE000F99A2F5F3F4FE417F50799F76A0F7B1F4B
:107CF00070930701609306018091C00085FFFCCF5F
:107D0000F092C6008091C00085FFFCCFB092C60003
:107D1000E1CE83E00E94C73CDDCE82E00E94C73CFA
:107D2000D9CE0E94763C809309020E94763C8093D3
:107D300008028091060190910701880F991F909386
:107D40000701809306010E94763C853409F4A6C0A1
:107D500080910C028E7F80930C020E94763C8032D0
:107D600009F0B8CE8091C00085FFFCCFF092C6002C
:107D7000609108027091090261157105B9F140E046
:107D800050E080910C02A82FA170B82FB27011C0E2
:107D9000BB2309F45CC0E0910601F0910701319624
:107DA000F0930701E09306014F5F5F4F46175707B7
:107DB000E8F4AA2369F3F999FECF209106013091E6
:107DC000070132BD21BDF89A90B58091C00085FFB2
:107DD000FCCF9093C6002F5F3F4F30930701209355
:107DE00006014F5F5F4F4617570718F38091C00099
:107DF00085FDE5CE8091C00085FFF8CFE0CE81E023
:107E00000E94C73C67CE0E94763C803209F08CCE3F
:107E10008091C00085FFFCCFF092C6008091C00029
:107E200085FFFCCFE092C6008091C00085FFFCCFAB
:107E3000D092C6008091C00085FFFCCFC092C600E2
:107E40008091C00085FFFCCFB092C60043CEE09188
:107E50000601F091070194918091C00085FFFCCF4D
:107E60009093C6009CCF80E10E94C73C33CE0E9415
:107E7000763C0E94763C182F0E94763C112309F430
:107E800083C0113009F484C08FE00E94C73C22CE29
:107E900080910C02816080930C02E5CE80910C02EF
:107EA000816080930C0259CF809107018823880F4D
:107EB000880B8A2180930B02809106019091070123
:107EC000880F991F90930701809306018091080203
:107ED00080FF09C080910802909109020196909359
:107EE000090280930802F894F999FECF1127E091D6
:107EF0000601F0910701C8E0D1E08091080290915D
:107F00000902103091F40091570001700130D9F34B
:107F100003E000935700E89500915700017001308D
:107F2000D9F301E100935700E89509901990009169
:107F3000570001700130D9F301E000935700E89534
:107F40001395103498F011270091570001700130FB
:107F5000D9F305E000935700E895009157000170B0
:107F60000130D9F301E100935700E895329602976A
:107F700009F0C7CF103011F00296E5CF112480919F
:107F8000C00085FFB9CEBCCE8EE10E94C73CA2CD19
:0C7F900085E90E94C73C9ECDF894FFCF0D
:027F9C00800063
:040000030000780081
:00000001FF
