:100000000C945D000C94F6030C94CF030C948500C3
:100010000C9485000C9485000C9485000C9485004C
:100020000C9485000C9485000C9485000C9485003C
:100030000C9485000C9485000C9485000C9485002C
:100040000C9485030C9485000C9443040C941D04BB
:100050000C9485000C9485000C9485000C9485000C
:100060000C9485000C9485000000000024002700FB
:100070002A0000000000250028002B0004040404CE
:100080000404040402020202020203030303030342
:10009000010204081020408001020408102001021F
:1000A00004081020000000080002010000030407FB
:1000B0000000000000000000750411241FBECFEFF7
:1000C000D8E0DEBFCDBF11E0A0E0B1E0E8E1FFE0A5
:1000D00002C005900D92A631B107D9F721E0A6E143
:1000E000B1E001C01D92AE3CB207E1F710E0CDE5F2
:1000F000D0E004C02197FE010E947F07CC35D107D4
:10010000C9F70E94A2040C948A070C940000823064
:10011000C8F4E82FF0E0EE0FFF1FE050FF4F7183AF
:100120006083813041F0809169008C7F8260809390
:100130006900E89A089580916900837F88608093C0
:100140006900E99A0895ECEAF0E09491E8E9F0E0BA
:100150002491E4E8F0E0E491EE2309F43CC0992313
:1001600039F1933091F038F49130A9F0923001F5E3
:1001700094B59F7D12C0973091F09830A1F09430E3
:10018000B9F4909180009F7D03C0909180009F778B
:10019000909380000DC094B59F7794BD09C0909155
:1001A000B0009F7703C09091B0009F7D9093B00006
:1001B000F0E0EE0FFF1FEE58FF4FA591B4919FB7EF
:1001C000F894811104C08C912095282302C0EC91F1
:1001D0002E2B2C939FBF0895CF93DF9390E0FC01CB
:1001E000E057FF4F2491FC01E458FF4F849188238E
:1001F00061F190E0880F991FFC01E859FF4FC5910C
:10020000D491FC01EE58FF4FA591B491611109C042
:100210009FB7F8948881209582238883EC912E23C0
:100220000BC0623061F49FB7F8948881322F30950B
:1002300083238883EC912E2B2C939FBF06C08FB70E
:10024000F894E8812E2B28838FBFDF91CF910895FA
:100250003FB7F89480912D0190912E01A0912F012C
:10026000B091300126B5A89B05C02F3F19F001962B
:10027000A11DB11D3FBFBA2FA92F982F8827820F2C
:10028000911DA11DB11DBC01CD0142E0660F771F7C
:10029000881F991F4A95D1F708958F929F92AF9228
:1002A000BF92CF92DF92EF92FF926B017C010E948E
:1002B00028014B015C01C114D104E104F104F1F007
:1002C0000E942801DC01CB0188199909AA09BB0900
:1002D000883E9340A105B10570F321E0C21AD10810
:1002E000E108F10888EE880E83E0981EA11CB11C7D
:1002F000C114D104E104F10419F7DDCFFF90EF90B0
:10030000DF90CF90BF90AF909F908F900895809195
:100310001E0190911F01019690931F0180931E0171
:1003200080911E0190911F018097B4F180911A0174
:1003300090911B01A0911C01B0911D0140911601EB
:100340005091170160911801709119018827B7FD2C
:1003500083959927AA27BB27842B952BA62BB72BF0
:100360008093160190931701A0931801B09319017F
:100370008091160190911701A0911801B091190177
:10038000880F991FAA1FBB1F809316019093170116
:10039000A0931801B093190180911A0190911B014B
:1003A000A0911C01B0911D01816080931A0190936E
:1003B0001B01A0931C01B0931D0180911A01909123
:1003C0001B01A0911C01B0911D01880F991FAA1F4C
:1003D000BB1F80931A0190931B01A0931C01B09343
:1003E0001D012FB7F8948091290190912A01A091C5
:1003F0002B01B0912C012FBF8093200190932101FC
:10040000A0932201B093230108950895CF92DF9223
:10041000EF92FF920F931F93CF93DF936C017A01BA
:100420008B01C0E0D0E0CE15DF0581F0D8016D91E1
:100430008D01D601ED91FC910190F081E02DC60176
:100440000995892B11F02196EECF7E01C701DF912E
:10045000CF911F910F91FF90EF90DF90CF90089573
:10046000089580E090E00895FC01538D448D252F80
:1004700030E0842F90E0821B930B541710F0CF963E
:10048000089501970895FC01918D828D981761F070
:10049000828DDF01A80FB11D5D968C91928D9F5FBB
:1004A0009F73928F90E008958FEF9FEF0895FC0166
:1004B000918D828D981731F0828DE80FF11D858D19
:1004C00090E008958FEF9FEF0895FC01918D228DAC
:1004D000892F90E0805C9F4F821B91098F73992731
:1004E000089581E391E00E94650221E0892B09F4DF
:1004F00020E0822F0895FC01848DDF01A80FB11D3B
:10050000A35ABF4F2C91848D90E001968F73992749
:10051000848FA689B7892C93A089B1898C91837027
:1005200080648C93938D848D981306C00288F38920
:10053000E02D80818F7D80830895EF92FF920F934D
:100540001F93CF93DF93EC0181E0888F9B8D8C8D7F
:10055000981305C0E889F989808185FD26C0F62EAB
:100560000B8D10E00F5F1F4F0F731127E02E8C8D46
:10057000E8120CC00FB607FCFACFE889F989808130
:1005800085FFF5CFCE010E947B02F1CF8B8DFE015E
:10059000E80FF11DE35AFF4FF0829FB7F8940B8FDD
:1005A000EA89FB89808180620AC09FB7F894EE894E
:1005B000FF896083E889F989808183708064808302
:1005C0009FBF81E090E0DF91CF911F910F91FF904D
:1005D000EF900895CF93DF93EC01888D8823C9F0C5
:1005E000EA89FB89808185FD05C0A889B9898C913C
:1005F00086FD0FC00FB607FCF5CF808185FFF2CFD7
:10060000A889B9898C9185FFEDCFCE010E947B022C
:10061000E7CFDF91CF91089580E090E0892B29F01A
:100620000E94710281110C940000089580911E01B6
:1006300090911F01019690931F0180931E0180915C
:100640001E0190911F018097B4F180911A01909141
:100650001B01A0911C01B0911D0140911601509108
:10066000170160911801709119018827B7FD8395D2
:100670009927AA27BB27842B952BA62BB72B8093D2
:10068000160190931701A0931801B093190180915E
:10069000160190911701A0911801B0911901880FCE
:1006A000991FAA1FBB1F8093160190931701A09357
:1006B0001801B093190180911A0190911B01A0912A
:1006C0001C01B0911D01880F991FAA1FBB1F8093A9
:1006D0001A0190931B01A0931C01B0931D012FB729
:1006E000F8948091290190912A01A0912B01B09159
:1006F0002C012FBF8093200190932101A093220110
:10070000B093230108950E9485071F920F920FB6A0
:100710000F9211242F933F938F939F93AF93BF9387
:100720008091290190912A01A0912B01B0912C0177
:100730003091280123E0230F2D3720F40196A11DCD
:10074000B11D05C026E8230F0296A11DB11D2093FF
:1007500028018093290190932A01A0932B01B09343
:100760002C0180912D0190912E01A0912F01B0912B
:1007700030010196A11DB11D80932D0190932E0192
:10078000A0932F01B0933001BF91AF919F918F91B2
:100790003F912F910F900FBE0F901F9018951F92B1
:1007A0000F920FB60F9211242F933F934F935F93A5
:1007B0006F937F938F939F93AF93BF93EF93FF9329
:1007C000E0910201F09103010995FF91EF91BF9132
:1007D000AF919F918F917F916F915F914F913F91D9
:1007E0002F910F900FBE0F901F9018951F920F9290
:1007F0000FB60F9211242F933F934F935F936F93F4
:100800007F938F939F93AF93BF93EF93FF93E09169
:100810000001F09101010995FF91EF91BF91AF9116
:100820009F918F917F916F915F914F913F912F9108
:100830000F900FBE0F901F9018951F920F920FB63A
:100840000F9211242F933F934F935F936F937F9356
:100850008F939F93AF93BF93EF93FF9381E391E0C7
:100860000E947B02FF91EF91BF91AF919F918F9179
:100870007F916F915F914F913F912F910F900FBE9C
:100880000F901F9018951F920F920FB60F92112480
:100890002F938F939F93EF93FF93E0914101F091FA
:1008A00042018081E0914701F091480182FD12C030
:1008B000908180914A018F5F8F7320914B01821745
:1008C00051F0E0914A01F0E0EF5CFE4F958F80938C
:1008D0004A0101C08081FF91EF919F918F912F91EB
:1008E0000F900FBE0F901F901895E1E3F1E0138277
:1008F000128288EE93E0A0E0B0E084839583A68323
:10090000B78388E091E09183808385EC90E09587C0
:10091000848784EC90E09787868780EC90E0918BC9
:10092000808B81EC90E0938B828B82EC90E0958BB6
:10093000848B86EC90E0978B868B118E128E138EB3
:10094000148E0895CF93DF93CDB7DEB7A1970FB67E
:10095000F894DEBF0FBECDBF789484B5826084BDAD
:1009600084B5816084BD85B5826085BD85B58160B3
:1009700085BD80916E00816080936E001092810031
:1009800080918100826080938100809181008160EC
:1009900080938100809180008160809380008091AD
:1009A000B10084608093B1008091B0008160809339
:1009B000B00080917A00846080937A0080917A0000
:1009C000826080937A0080917A00816080937A00BF
:1009D00080917A00806880937A001092C10061E073
:1009E00088E00E94EC00E0914101F091420182E038
:1009F0008083E0913D01F0913E011082E0913F0142
:100A0000F09140018FEC808310924901E091450103
:100A1000F091460186E08083E0914301F09144012A
:100A2000808180618083E0914301F0914401808165
:100A300088608083E0914301F09144018081806867
:100A40008083E0914301F091440180818F7D808318
:100A50001092200110922101109222011092230184
:100A6000109216011092170110921801109219019C
:100A700010921A0110921B0110921C0110921D017C
:100A80001092240110922501109226011092270144
:100A900010921F0110921E0160E082E00E94EC00A3
:100AA00060E083E00E94EC0066E173E080E00E9479
:100AB000870067E871E081E00E94870081E00E9482
:100AC000A30068EC70E080E090E00E944D01F89493
:100AD0002FB7F8948091290190912A01A0912B01C0
:100AE000B0912C012FBF40912001509121016091C4
:100AF0002201709123016C017D01C41AD50AE60A16
:100B0000F70AB701A6014A3151056105710508F4DC
:100B10004CC020911E0130911F012831310509F48C
:100B20009AC020911E0130911F012A31310509F42C
:100B300092C020911E0130911F012032310509F42D
:100B40008AC020911E0130911F012232310509F423
:100B500082C020911E0130911F012830310509F417
:100B60007AC020911E0130911F012430310509F413
:100B700072C08093200190932101A0932201B09331
:100B8000230110921F0110921E0110921A0110925F
:100B90001B0110921C0110921D011092160110925F
:100BA0001701109218011092190110E07894112386
:100BB00009F445C062E081E391E00E949D02C0908B
:100BC0002401D0902501E0902601F090270119A280
:100BD000BE016F5D7F4FD701C6018F709927AA278D
:100BE000BB2734E0F694E794D794C7943A95D1F7AD
:100BF000615071098A3014F4805D01C0895CFB0189
:100C00008083C114D104E104F10429F76115710551
:100C100059F001900020E9F73197AF01461B570BBF
:100C200081E391E00E94060263E081E391E00E948B
:100C30009D0264E670E080E090E00E944D0180E05B
:100C40000E94A30066E970E080E090E00E944D0100
:100C50000E940C0333CF80911A0190911B01A09147
:100C60001C01B0911D01B695A79597958795809326
:100C70001A0190931B01A0931C01B0931D01809158
:100C80001E0190911F018197A4F08091160190910F
:100C90001701A0911801B0911901B695A7959795E4
:100CA00087958093160190931701A0931801B09334
:100CB000190180911E0190911F01089709F04DC004
:100CC00040911A0150911B0160911C0170911D010E
:100CD00080911A0190911B01A0911C01B0911D01FE
:100CE0008F7020911E0130911F0110921F011092F0
:100CF0001E0110921A0110921B0110921C011092F9
:100D00001D011092160110921701109218011092F5
:100D10001901282F082E000C330B407F552766271A
:100D20007727E4E07695679557954795EA95D1F74B
:100D3000409550954F7055272417350709F036CF49
:100D40008A3021F08B3019F48DE001C08BE1082E40
:100D5000000C990BAA0BBB0BC8C080911E0190918F
:100D60001F010497B1F580911A0190911B01A09188
:100D70001C01B0911D018F708A3021F08B3019F465
:100D80008DE001C08BE1082E000C990BAA0BBB0B68
:100D90008093240190932501A0932601B09327010D
:100DA00080911E0190911F0110921F0110921E014F
:100DB00010921A0110921B0110921C0110921D0139
:100DC0001092160110921701109218011092190139
:100DD00094C080911E0190911F018A3179F4809115
:100DE0001A0190911B01A0911C01B0911D018E7FF1
:100DF000B170B695A795979587955FC0823209F037
:100E000054C08091160190911701A0911801B091E2
:100E1000190183709927AA27BB2780931601909305
:100E20001701A0931801B0931901809116019091B8
:100E30001701A0911801B09119014EE1880F991F77
:100E4000AA1FBB1F4A95D1F78093160190931701F3
:100E5000A0931801B093190180911A0190911B0180
:100E6000A0911C01B0911D01B695A7959795879506
:100E700080931A0190931B01A0931C01B0931D0154
:100E8000409116015091170160911801709119015C
:100E900080911A0190911B01A0911C01B0911D013C
:100EA000842B952BA62BB72B08C080911A0190910B
:100EB0001B01A0911C01B0911D0120911E013091D8
:100EC0001F0110921F0110921E0110921A01109220
:100ED0001B0110921C0110921D011092160110921C
:100EE0001701109218011092190180932401909318
:100EF0002501A0932601B093270111E057CEEE0FF4
:100F0000FF1F0590F491E02D099481E090E0F894A2
:080F10000C948A07F894FFCF4E
:100F180005020502000000009D0206023402EA02F2
:060F2800650243025702BE
:00000001FF
